:100000000EC020C01FC01EC01DC01CC01BC01AC017
:1000100019C018C017C016C015C014C013C01124D1
:100020001FBECFE5D2E0DEBFCDBF10E0A0E6B0E05E
:10003000E0EEF0E002C005900D92AA36B107D9F7C4
:100040003ED04CC0DDCFC498E1E4F3E03197F1F746
:1000500028E030E080FF02C0C49A01C0C498E1E407
:10006000F3E03197F1F785952150310999F7C49A5A
:1000700081E493E00197F1F70895EF92FF920F93D7
:100080001F93CF93DF938C01FC0101900020E9F7CF
:100090003197EF01C81BD90B7C01C701801B910B65
:1000A0008C179D072CF4F70181917F01CCDFF5CFF0
:1000B000DF91CF911F910F91FF90EF900895BC9A1F
:1000C000C49A80E690E0D9DF2FE38DE093E02150E1
:1000D00080409040E1F700C00000F3CFF894FFCFDC
:0A00E000636F75636F750A0D000071
:00000001FF
